{
  "contractName": "Tournament",
  "abi": [
    {
      "inputs": [],
      "stateMutability": "nonpayable",
      "type": "constructor"
    },
    {
      "anonymous": false,
      "inputs": [
        {
          "indexed": false,
          "internalType": "address",
          "name": "player",
          "type": "address"
        },
        {
          "indexed": false,
          "internalType": "string",
          "name": "rank",
          "type": "string"
        }
      ],
      "name": "PlayerRegistered",
      "type": "event"
    },
    {
      "anonymous": false,
      "inputs": [
        {
          "indexed": false,
          "internalType": "address",
          "name": "host",
          "type": "address"
        },
        {
          "indexed": false,
          "internalType": "uint256",
          "name": "refund",
          "type": "uint256"
        }
      ],
      "name": "RefundTresory",
      "type": "event"
    },
    {
      "anonymous": false,
      "inputs": [
        {
          "indexed": false,
          "internalType": "enum Tournament.StateRegistration",
          "name": "state",
          "type": "uint8"
        }
      ],
      "name": "RegistrationUpdated",
      "type": "event"
    },
    {
      "anonymous": false,
      "inputs": [
        {
          "indexed": false,
          "internalType": "address",
          "name": "sponsor",
          "type": "address"
        },
        {
          "indexed": false,
          "internalType": "uint256",
          "name": "donation",
          "type": "uint256"
        },
        {
          "indexed": false,
          "internalType": "uint256",
          "name": "nbSponsors",
          "type": "uint256"
        },
        {
          "indexed": false,
          "internalType": "uint256",
          "name": "totalDonation",
          "type": "uint256"
        }
      ],
      "name": "SponsorshipAdded",
      "type": "event"
    },
    {
      "anonymous": false,
      "inputs": [
        {
          "indexed": false,
          "internalType": "enum Tournament.StateTournament",
          "name": "state",
          "type": "uint8"
        }
      ],
      "name": "TournamentStateUpdated",
      "type": "event"
    },
    {
      "anonymous": false,
      "inputs": [
        {
          "indexed": false,
          "internalType": "address",
          "name": "winner",
          "type": "address"
        },
        {
          "indexed": false,
          "internalType": "uint256",
          "name": "reward",
          "type": "uint256"
        }
      ],
      "name": "WinnerRewarded",
      "type": "event"
    },
    {
      "inputs": [],
      "name": "PRICE_REGISTRATION_PLAYER",
      "outputs": [
        {
          "internalType": "uint256",
          "name": "",
          "type": "uint256"
        }
      ],
      "stateMutability": "view",
      "type": "function",
      "constant": true
    },
    {
      "inputs": [],
      "name": "currentStateRegistration",
      "outputs": [
        {
          "internalType": "enum Tournament.StateRegistration",
          "name": "",
          "type": "uint8"
        }
      ],
      "stateMutability": "view",
      "type": "function",
      "constant": true
    },
    {
      "inputs": [],
      "name": "currentStateTournament",
      "outputs": [
        {
          "internalType": "enum Tournament.StateTournament",
          "name": "",
          "type": "uint8"
        }
      ],
      "stateMutability": "view",
      "type": "function",
      "constant": true
    },
    {
      "inputs": [],
      "name": "donationsSponsors",
      "outputs": [
        {
          "internalType": "uint256",
          "name": "",
          "type": "uint256"
        }
      ],
      "stateMutability": "view",
      "type": "function",
      "constant": true
    },
    {
      "inputs": [],
      "name": "host",
      "outputs": [
        {
          "internalType": "address payable",
          "name": "",
          "type": "address"
        }
      ],
      "stateMutability": "view",
      "type": "function",
      "constant": true
    },
    {
      "inputs": [],
      "name": "nbPlayers",
      "outputs": [
        {
          "internalType": "uint256",
          "name": "",
          "type": "uint256"
        }
      ],
      "stateMutability": "view",
      "type": "function",
      "constant": true
    },
    {
      "inputs": [],
      "name": "nbSponsors",
      "outputs": [
        {
          "internalType": "uint256",
          "name": "",
          "type": "uint256"
        }
      ],
      "stateMutability": "view",
      "type": "function",
      "constant": true
    },
    {
      "inputs": [],
      "name": "paymentsPlayers",
      "outputs": [
        {
          "internalType": "uint256",
          "name": "",
          "type": "uint256"
        }
      ],
      "stateMutability": "view",
      "type": "function",
      "constant": true
    },
    {
      "inputs": [
        {
          "internalType": "address",
          "name": "",
          "type": "address"
        }
      ],
      "name": "players",
      "outputs": [
        {
          "internalType": "address",
          "name": "player",
          "type": "address"
        },
        {
          "internalType": "string",
          "name": "rank",
          "type": "string"
        },
        {
          "internalType": "bool",
          "name": "isRegistered",
          "type": "bool"
        }
      ],
      "stateMutability": "view",
      "type": "function",
      "constant": true
    },
    {
      "inputs": [
        {
          "internalType": "address",
          "name": "",
          "type": "address"
        }
      ],
      "name": "sponsors",
      "outputs": [
        {
          "internalType": "uint256",
          "name": "",
          "type": "uint256"
        }
      ],
      "stateMutability": "view",
      "type": "function",
      "constant": true
    },
    {
      "inputs": [],
      "name": "winner",
      "outputs": [
        {
          "internalType": "address payable",
          "name": "",
          "type": "address"
        }
      ],
      "stateMutability": "view",
      "type": "function",
      "constant": true
    },
    {
      "stateMutability": "payable",
      "type": "receive",
      "payable": true
    },
    {
      "inputs": [],
      "name": "launchRegistration",
      "outputs": [],
      "stateMutability": "nonpayable",
      "type": "function"
    },
    {
      "inputs": [],
      "name": "closeRegistration",
      "outputs": [],
      "stateMutability": "nonpayable",
      "type": "function"
    },
    {
      "inputs": [
        {
          "internalType": "string",
          "name": "rank",
          "type": "string"
        }
      ],
      "name": "addPlayer",
      "outputs": [],
      "stateMutability": "payable",
      "type": "function",
      "payable": true
    },
    {
      "inputs": [],
      "name": "addSponsor",
      "outputs": [],
      "stateMutability": "payable",
      "type": "function",
      "payable": true
    },
    {
      "inputs": [
        {
          "internalType": "address payable",
          "name": "addressWinner",
          "type": "address"
        }
      ],
      "name": "rewardWinner",
      "outputs": [],
      "stateMutability": "payable",
      "type": "function",
      "payable": true
    },
    {
      "inputs": [],
      "name": "updateTresoryTournament",
      "outputs": [],
      "stateMutability": "payable",
      "type": "function",
      "payable": true
    },
    {
      "inputs": [],
      "name": "startTournament",
      "outputs": [],
      "stateMutability": "nonpayable",
      "type": "function"
    },
    {
      "inputs": [],
      "name": "endTournament",
      "outputs": [],
      "stateMutability": "nonpayable",
      "type": "function"
    },
    {
      "inputs": [],
      "name": "getBalance",
      "outputs": [
        {
          "internalType": "uint256",
          "name": "",
          "type": "uint256"
        }
      ],
      "stateMutability": "view",
      "type": "function",
      "constant": true
    }
  ],
  "bytecode": "0x608060405234801561001057600080fd5b5033600660006101000a81548173ffffffffffffffffffffffffffffffffffffffff021916908373ffffffffffffffffffffffffffffffffffffffff1602179055506000600760146101000a81548160ff0219169083600281111561007857610077610082565b5b02179055506100b1565b7f4e487b7100000000000000000000000000000000000000000000000000000000600052602160045260246000fd5b6127f780620000c16000396000f3fe6080604052600436106101235760003560e01c806395e9209b116100a0578063dfbf53ae11610064578063dfbf53ae14610325578063e2eb41ff14610350578063e2fa09371461038f578063f437bc59146103ba578063f77e8b83146103e55761012a565b806395e9209b146102715780639e70efb91461027b578063bf559d11146102a6578063c6825365146102bd578063d35590c2146102e85761012a565b80634d633a8f116100e75780634d633a8f146101c25780635184f806146101d95780637dc673bc146102045780637e01d3f41461021b57806394ed4bf8146102465761012a565b806311ceb05a1461012f57806312065fe01461015a578063373c7143146101855780633bb2d914146101a15780634c804068146101ab5761012a565b3661012a57005b600080fd5b34801561013b57600080fd5b50610144610401565b6040516101519190611624565b60405180910390f35b34801561016657600080fd5b5061016f610407565b60405161017c9190611624565b60405180910390f35b61019f600480360381019061019a91906116b1565b61040f565b005b6101a961060a565b005b3480156101b757600080fd5b506101c06107e5565b005b3480156101ce57600080fd5b506101d76109b9565b005b3480156101e557600080fd5b506101ee610afc565b6040516101fb9190611624565b60405180910390f35b34801561021057600080fd5b50610219610b02565b005b34801561022757600080fd5b50610230610c4a565b60405161023d9190611755565b60405180910390f35b34801561025257600080fd5b5061025b610c5d565b6040516102689190611624565b60405180910390f35b610279610c69565b005b34801561028757600080fd5b50610290610eb6565b60405161029d91906117b8565b60405180910390f35b3480156102b257600080fd5b506102bb610ec9565b005b3480156102c957600080fd5b506102d2611041565b6040516102df9190611624565b60405180910390f35b3480156102f457600080fd5b5061030f600480360381019061030a9190611811565b611047565b60405161031c9190611624565b60405180910390f35b34801561033157600080fd5b5061033a61105f565b604051610347919061184d565b60405180910390f35b34801561035c57600080fd5b5061037760048036038101906103729190611811565b611085565b6040516103869392919061192b565b60405180910390f35b34801561039b57600080fd5b506103a4611164565b6040516103b19190611624565b60405180910390f35b3480156103c657600080fd5b506103cf61116a565b6040516103dc919061184d565b60405180910390f35b6103ff60048036038101906103fa9190611a9e565b611190565b005b60045481565b600047905090565b600660009054906101000a900473ffffffffffffffffffffffffffffffffffffffff1673ffffffffffffffffffffffffffffffffffffffff163373ffffffffffffffffffffffffffffffffffffffff161461049f576040517f08c379a000000000000000000000000000000000000000000000000000000000815260040161049690611b59565b60405180910390fd5b6002808111156104b2576104b16116de565b5b600760159054906101000a900460ff1660028111156104d4576104d36116de565b5b14610514576040517f08c379a000000000000000000000000000000000000000000000000000000000815260040161050b90611beb565b60405180910390fd5b80600760006101000a81548173ffffffffffffffffffffffffffffffffffffffff021916908373ffffffffffffffffffffffffffffffffffffffff160217905550600060025490508173ffffffffffffffffffffffffffffffffffffffff166108fc829081150290604051600060405180830381858888f193505050501580156105a2573d6000803e3d6000fd5b507f0a3204bc33a281ed667abad174342fa0c82ae0b9fdad5b5f14319335acda3e6e600760009054906101000a900473ffffffffffffffffffffffffffffffffffffffff16826040516105f6929190611c6a565b60405180910390a160006002819055505050565b600660009054906101000a900473ffffffffffffffffffffffffffffffffffffffff1673ffffffffffffffffffffffffffffffffffffffff163373ffffffffffffffffffffffffffffffffffffffff161461069a576040517f08c379a000000000000000000000000000000000000000000000000000000000815260040161069190611b59565b60405180910390fd5b6002808111156106ad576106ac6116de565b5b600760159054906101000a900460ff1660028111156106cf576106ce6116de565b5b1461070f576040517f08c379a000000000000000000000000000000000000000000000000000000000815260040161070690611d05565b60405180910390fd5b60006003549050600660009054906101000a900473ffffffffffffffffffffffffffffffffffffffff1673ffffffffffffffffffffffffffffffffffffffff166108fc829081150290604051600060405180830381858888f1935050505015801561077e573d6000803e3d6000fd5b507f40ec121c661117d4bbaf68dd6900b6c9b152410c7d77cea6ae10c1a0adae895a600660009054906101000a900473ffffffffffffffffffffffffffffffffffffffff16826040516107d2929190611c6a565b60405180910390a1600060038190555050565b600660009054906101000a900473ffffffffffffffffffffffffffffffffffffffff1673ffffffffffffffffffffffffffffffffffffffff163373ffffffffffffffffffffffffffffffffffffffff1614610875576040517f08c379a000000000000000000000000000000000000000000000000000000000815260040161086c90611b59565b60405180910390fd5b60006002811115610889576108886116de565b5b600760149054906101000a900460ff1660028111156108ab576108aa6116de565b5b146108b557600080fd5b6002600554116108fa576040517f08c379a00000000000000000000000000000000000000000000000000000000081526004016108f190611dbd565b60405180910390fd5b674563918244f4000060025411610946576040517f08c379a000000000000000000000000000000000000000000000000000000000815260040161093d90611e4f565b60405180910390fd5b6001600760146101000a81548160ff0219169083600281111561096c5761096b6116de565b5b02179055507f2e819367fd0dc46fa4bdb5d3ac439a187464508ae295d58fce3d91deb7170f10600760149054906101000a900460ff166040516109af9190611755565b60405180910390a1565b600660009054906101000a900473ffffffffffffffffffffffffffffffffffffffff1673ffffffffffffffffffffffffffffffffffffffff163373ffffffffffffffffffffffffffffffffffffffff1614610a49576040517f08c379a0000000000000000000000000000000000000000000000000000000008152600401610a4090611b59565b60405180910390fd5b60016002811115610a5d57610a5c6116de565b5b600760159054906101000a900460ff166002811115610a7f57610a7e6116de565b5b14610a8957600080fd5b6002600760156101000a81548160ff02191690836002811115610aaf57610aae6116de565b5b02179055507f6989ed15e0e83dde66fba80d57007bafea0614c08b459195887295a6973c2414600760159054906101000a900460ff16604051610af291906117b8565b60405180910390a1565b60025481565b600660009054906101000a900473ffffffffffffffffffffffffffffffffffffffff1673ffffffffffffffffffffffffffffffffffffffff163373ffffffffffffffffffffffffffffffffffffffff1614610b92576040517f08c379a0000000000000000000000000000000000000000000000000000000008152600401610b8990611b59565b60405180910390fd5b600480541015610bd7576040517f08c379a0000000000000000000000000000000000000000000000000000000008152600401610bce90611ee1565b60405180910390fd5b6002600760146101000a81548160ff02191690836002811115610bfd57610bfc6116de565b5b02179055507f2e819367fd0dc46fa4bdb5d3ac439a187464508ae295d58fce3d91deb7170f10600760149054906101000a900460ff16604051610c409190611755565b60405180910390a1565b600760149054906101000a900460ff1681565b671bc16d674ec8000081565b600660009054906101000a900473ffffffffffffffffffffffffffffffffffffffff1673ffffffffffffffffffffffffffffffffffffffff163373ffffffffffffffffffffffffffffffffffffffff1603610cf9576040517f08c379a0000000000000000000000000000000000000000000000000000000008152600401610cf090611f4d565b60405180910390fd5b60006002811115610d0d57610d0c6116de565b5b600760159054906101000a900460ff166002811115610d2f57610d2e6116de565b5b14610d3957600080fd5b6000600160003373ffffffffffffffffffffffffffffffffffffffff1673ffffffffffffffffffffffffffffffffffffffff1681526020019081526020016000205414610dbb576040517f08c379a0000000000000000000000000000000000000000000000000000000008152600401610db290611fdf565b60405180910390fd5b60003411610dfe576040517f08c379a0000000000000000000000000000000000000000000000000000000008152600401610df59061204b565b60405180910390fd5b34600160003373ffffffffffffffffffffffffffffffffffffffff1673ffffffffffffffffffffffffffffffffffffffff168152602001908152602001600020819055503460026000828254610e54919061209a565b9250508190555060056000815480929190610e6e906120f0565b91905055507fedf28e5db15c5dfe1d15087d61a05b701b067ee2fe79e1e3b4e49e25698c88273334600554600254604051610eac9493929190612138565b60405180910390a1565b600760159054906101000a900460ff1681565b600660009054906101000a900473ffffffffffffffffffffffffffffffffffffffff1673ffffffffffffffffffffffffffffffffffffffff163373ffffffffffffffffffffffffffffffffffffffff1614610f59576040517f08c379a0000000000000000000000000000000000000000000000000000000008152600401610f5090611b59565b60405180910390fd5b600280811115610f6c57610f6b6116de565b5b600760149054906101000a900460ff166002811115610f8e57610f8d6116de565b5b14610fce576040517f08c379a0000000000000000000000000000000000000000000000000000000008152600401610fc5906121ef565b60405180910390fd5b6001600760156101000a81548160ff02191690836002811115610ff457610ff36116de565b5b02179055507f6989ed15e0e83dde66fba80d57007bafea0614c08b459195887295a6973c2414600760159054906101000a900460ff1660405161103791906117b8565b60405180910390a1565b60035481565b60016020528060005260406000206000915090505481565b600760009054906101000a900473ffffffffffffffffffffffffffffffffffffffff1681565b60006020528060005260406000206000915090508060000160009054906101000a900473ffffffffffffffffffffffffffffffffffffffff16908060010180546110ce9061223e565b80601f01602080910402602001604051908101604052809291908181526020018280546110fa9061223e565b80156111475780601f1061111c57610100808354040283529160200191611147565b820191906000526020600020905b81548152906001019060200180831161112a57829003601f168201915b5050505050908060020160009054906101000a900460ff16905083565b60055481565b600660009054906101000a900473ffffffffffffffffffffffffffffffffffffffff1681565b8060008151116111d5576040517f08c379a00000000000000000000000000000000000000000000000000000000081526004016111cc906122bb565b60405180910390fd5b600660009054906101000a900473ffffffffffffffffffffffffffffffffffffffff1673ffffffffffffffffffffffffffffffffffffffff163373ffffffffffffffffffffffffffffffffffffffff1603611265576040517f08c379a000000000000000000000000000000000000000000000000000000000815260040161125c90611f4d565b60405180910390fd5b600280811115611278576112776116de565b5b600760149054906101000a900460ff16600281111561129a576112996116de565b5b036112da576040517f08c379a00000000000000000000000000000000000000000000000000000000081526004016112d190612327565b60405180910390fd5b600160028111156112ee576112ed6116de565b5b600760149054906101000a900460ff1660028111156113105761130f6116de565b5b14611350576040517f08c379a000000000000000000000000000000000000000000000000000000000815260040161134790612393565b60405180910390fd5b6000803373ffffffffffffffffffffffffffffffffffffffff1673ffffffffffffffffffffffffffffffffffffffff16815260200190815260200160002060020160009054906101000a900460ff16156113df576040517f08c379a00000000000000000000000000000000000000000000000000000000081526004016113d690612425565b60405180910390fd5b6000600160003373ffffffffffffffffffffffffffffffffffffffff1673ffffffffffffffffffffffffffffffffffffffff1681526020019081526020016000205414611461576040517f08c379a000000000000000000000000000000000000000000000000000000000815260040161145890612491565b60405180910390fd5b671bc16d674ec8000034146114ab576040517f08c379a00000000000000000000000000000000000000000000000000000000081526004016114a2906124fd565b60405180910390fd5b60405180606001604052803373ffffffffffffffffffffffffffffffffffffffff168152602001838152602001600115158152506000803373ffffffffffffffffffffffffffffffffffffffff1673ffffffffffffffffffffffffffffffffffffffff16815260200190815260200160002060008201518160000160006101000a81548173ffffffffffffffffffffffffffffffffffffffff021916908373ffffffffffffffffffffffffffffffffffffffff160217905550602082015181600101908161157991906126bf565b5060408201518160020160006101000a81548160ff021916908315150217905550905050600460008154809291906115b0906120f0565b919050555034600360008282546115c7919061209a565b925050819055507fe04d23b73ae3d3b27074da9719b5a4cd521395aaf86bfe7e374933ecb567731a33836040516115ff929190612791565b60405180910390a15050565b6000819050919050565b61161e8161160b565b82525050565b60006020820190506116396000830184611615565b92915050565b6000604051905090565b600080fd5b600080fd5b600073ffffffffffffffffffffffffffffffffffffffff82169050919050565b600061167e82611653565b9050919050565b61168e81611673565b811461169957600080fd5b50565b6000813590506116ab81611685565b92915050565b6000602082840312156116c7576116c6611649565b5b60006116d58482850161169c565b91505092915050565b7f4e487b7100000000000000000000000000000000000000000000000000000000600052602160045260246000fd5b6003811061171e5761171d6116de565b5b50565b600081905061172f8261170d565b919050565b600061173f82611721565b9050919050565b61174f81611734565b82525050565b600060208201905061176a6000830184611746565b92915050565b60038110611781576117806116de565b5b50565b600081905061179282611770565b919050565b60006117a282611784565b9050919050565b6117b281611797565b82525050565b60006020820190506117cd60008301846117a9565b92915050565b60006117de82611653565b9050919050565b6117ee816117d3565b81146117f957600080fd5b50565b60008135905061180b816117e5565b92915050565b60006020828403121561182757611826611649565b5b6000611835848285016117fc565b91505092915050565b61184781611673565b82525050565b6000602082019050611862600083018461183e565b92915050565b611871816117d3565b82525050565b600081519050919050565b600082825260208201905092915050565b60005b838110156118b1578082015181840152602081019050611896565b838111156118c0576000848401525b50505050565b6000601f19601f8301169050919050565b60006118e282611877565b6118ec8185611882565b93506118fc818560208601611893565b611905816118c6565b840191505092915050565b60008115159050919050565b61192581611910565b82525050565b60006060820190506119406000830186611868565b818103602083015261195281856118d7565b9050611961604083018461191c565b949350505050565b600080fd5b600080fd5b7f4e487b7100000000000000000000000000000000000000000000000000000000600052604160045260246000fd5b6119ab826118c6565b810181811067ffffffffffffffff821117156119ca576119c9611973565b5b80604052505050565b60006119dd61163f565b90506119e982826119a2565b919050565b600067ffffffffffffffff821115611a0957611a08611973565b5b611a12826118c6565b9050602081019050919050565b82818337600083830152505050565b6000611a41611a3c846119ee565b6119d3565b905082815260208101848484011115611a5d57611a5c61196e565b5b611a68848285611a1f565b509392505050565b600082601f830112611a8557611a84611969565b5b8135611a95848260208601611a2e565b91505092915050565b600060208284031215611ab457611ab3611649565b5b600082013567ffffffffffffffff811115611ad257611ad161164e565b5b611ade84828501611a70565b91505092915050565b7f596f7520646f6e277420686176652074686520726967687420746f20646f207460008201527f6869732100000000000000000000000000000000000000000000000000000000602082015250565b6000611b43602483611882565b9150611b4e82611ae7565b604082019050919050565b60006020820190508181036000830152611b7281611b36565b9050919050565b7f54686520746f75726e616d656e74206973206e6f74207965742066696e69736860008201527f6564210000000000000000000000000000000000000000000000000000000000602082015250565b6000611bd5602383611882565b9150611be082611b79565b604082019050919050565b60006020820190508181036000830152611c0481611bc8565b9050919050565b6000819050919050565b6000611c30611c2b611c2684611653565b611c0b565b611653565b9050919050565b6000611c4282611c15565b9050919050565b6000611c5482611c37565b9050919050565b611c6481611c49565b82525050565b6000604082019050611c7f6000830185611c5b565b611c8c6020830184611615565b9392505050565b7f547265736f72792063616e206e6f74206265207570646174656420726967687460008201527f206e6f7721000000000000000000000000000000000000000000000000000000602082015250565b6000611cef602583611882565b9150611cfa82611c93565b604082019050919050565b60006020820190508181036000830152611d1e81611ce2565b9050919050565b7f4174206c6561737420332073706f6e736f727320617265206e6565646564207460008201527f6f206c61756e63682074686520726567697374726174696f6e2070686173652060208201527f666f722074686520746f75726e616d656e742021000000000000000000000000604082015250565b6000611da7605483611882565b9150611db282611d25565b606082019050919050565b60006020820190508181036000830152611dd681611d9a565b9050919050565b7f5468652066756e647320617265206e6f7420656e6f75676820746f206c61756e60008201527f6368206120746f75726e616d656e742100000000000000000000000000000000602082015250565b6000611e39603083611882565b9150611e4482611ddd565b604082019050919050565b60006020820190508181036000830152611e6881611e2c565b9050919050565b7f4174206c65617374203820706c617965727320617265206e656564656420666f60008201527f72207468697320746f75726e616d656e74210000000000000000000000000000602082015250565b6000611ecb603283611882565b9150611ed682611e6f565b604082019050919050565b60006020820190508181036000830152611efa81611ebe565b9050919050565b7f41732074686520686f73742c20796f752063616e277420646f20746869732100600082015250565b6000611f37601f83611882565b9150611f4282611f01565b602082019050919050565b60006020820190508181036000830152611f6681611f2a565b9050919050565b7f596f752061726520616c726561647920612073706f6e736f7220666f7220746860008201527f697320746f75726e616d656e7421000000000000000000000000000000000000602082015250565b6000611fc9602e83611882565b9150611fd482611f6d565b604082019050919050565b60006020820190508181036000830152611ff881611fbc565b9050919050565b7f4120646f6e6174696f6e206d75737420626520686967686572207468616e2030600082015250565b6000612035602083611882565b915061204082611fff565b602082019050919050565b6000602082019050818103600083015261206481612028565b9050919050565b7f4e487b7100000000000000000000000000000000000000000000000000000000600052601160045260246000fd5b60006120a58261160b565b91506120b08361160b565b9250827fffffffffffffffffffffffffffffffffffffffffffffffffffffffffffffffff038211156120e5576120e461206b565b5b828201905092915050565b60006120fb8261160b565b91507fffffffffffffffffffffffffffffffffffffffffffffffffffffffffffffffff820361212d5761212c61206b565b5b600182019050919050565b600060808201905061214d6000830187611868565b61215a6020830186611615565b6121676040830185611615565b6121746060830184611615565b95945050505050565b7f526567697374726174696f6e206d75737420626520636c6f736564206265666f60008201527f7265207374617274696e672074686520746f75726e616d656e74210000000000602082015250565b60006121d9603b83611882565b91506121e48261217d565b604082019050919050565b60006020820190508181036000830152612208816121cc565b9050919050565b7f4e487b7100000000000000000000000000000000000000000000000000000000600052602260045260246000fd5b6000600282049050600182168061225657607f821691505b6020821081036122695761226861220f565b5b50919050565b7f596f75722072616e6b206973206d697373696e67210000000000000000000000600082015250565b60006122a5601583611882565b91506122b08261226f565b602082019050919050565b600060208201905081810360008301526122d481612298565b9050919050565b7f526567697374726174696f6e2061726520636c6f736564210000000000000000600082015250565b6000612311601883611882565b915061231c826122db565b602082019050919050565b6000602082019050818103600083015261234081612304565b9050919050565b7f526567697374726174696f6e20617265206e6f74206f70656e65642079657400600082015250565b600061237d601f83611882565b915061238882612347565b602082019050919050565b600060208201905081810360008301526123ac81612370565b9050919050565b7f596f752061726520616c7265616479207265676973746572656420666f72207460008201527f68697320746f75726e616d656e74202100000000000000000000000000000000602082015250565b600061240f603083611882565b915061241a826123b3565b604082019050919050565b6000602082019050818103600083015261243e81612402565b9050919050565b7f412073706f6e736f722063616e206e6f74206265206120706c61796572000000600082015250565b600061247b601d83611882565b915061248682612445565b602082019050919050565b600060208201905081810360008301526124aa8161246e565b9050919050565b7f546f75726e616d656e7420707269636520697320302e32206574686572000000600082015250565b60006124e7601d83611882565b91506124f2826124b1565b602082019050919050565b60006020820190508181036000830152612516816124da565b9050919050565b60008190508160005260206000209050919050565b60006020601f8301049050919050565b600082821b905092915050565b60006008830261257f7fffffffffffffffffffffffffffffffffffffffffffffffffffffffffffffffff82612542565b6125898683612542565b95508019841693508086168417925050509392505050565b60006125bc6125b76125b28461160b565b611c0b565b61160b565b9050919050565b6000819050919050565b6125d6836125a1565b6125ea6125e2826125c3565b84845461254f565b825550505050565b600090565b6125ff6125f2565b61260a8184846125cd565b505050565b5b8181101561262e576126236000826125f7565b600181019050612610565b5050565b601f821115612673576126448161251d565b61264d84612532565b8101602085101561265c578190505b61267061266885612532565b83018261260f565b50505b505050565b600082821c905092915050565b600061269660001984600802612678565b1980831691505092915050565b60006126af8383612685565b9150826002028217905092915050565b6126c882611877565b67ffffffffffffffff8111156126e1576126e0611973565b5b6126eb825461223e565b6126f6828285612632565b600060209050601f8311600181146127295760008415612717578287015190505b61272185826126a3565b865550612789565b601f1984166127378661251d565b60005b8281101561275f5784890151825560018201915060208501945060208101905061273a565b8683101561277c5784890151612778601f891682612685565b8355505b6001600288020188555050505b505050505050565b60006040820190506127a66000830185611868565b81810360208301526127b881846118d7565b9050939250505056fea264697066735822122050c287a0e34c0f168a59989809e7ea178e412096ae494fc0029bf02e5c83d25764736f6c634300080f0033",
  "immutableReferences": {},
  "source": "//SPDX-License-Identifier: GPL-3.0\r\n \r\npragma solidity ^0.8.13;\r\n\r\ncontract Tournament {\r\n    uint constant public PRICE_REGISTRATION_PLAYER = 2000000000000000000; // defined in wei => 0.2 ether\r\n\r\n    mapping (address => Player) public players;\r\n    mapping (address => uint) public sponsors;\r\n    uint public donationsSponsors;\r\n    uint public paymentsPlayers;\r\n    uint public nbPlayers;\r\n    uint public nbSponsors;\r\n    address payable public host;\r\n    address payable public winner;\r\n\r\n    enum StateRegistration {NOT_STARTED, OPENED, CLOSED}\r\n    enum StateTournament {NOT_STARTED, ONGOING, FINISHED}\r\n    \r\n    StateRegistration public currentStateRegistration;\r\n    StateTournament public currentStateTournament;\r\n\r\n    struct Player {\r\n        address player;\r\n        string rank;\r\n        bool isRegistered;\r\n    }\r\n\r\n    event PlayerRegistered (address player, string rank);\r\n    event SponsorshipAdded (address sponsor, uint donation, uint nbSponsors, uint totalDonation);\r\n    event RegistrationUpdated (StateRegistration state);\r\n    event TournamentStateUpdated (StateTournament state);\r\n    event WinnerRewarded (address winner, uint reward);\r\n    event RefundTresory (address host, uint refund);\r\n\r\n    constructor() {\r\n        host = payable(msg.sender);\r\n        currentStateRegistration = StateRegistration.NOT_STARTED;\r\n    }\r\n\r\n    receive() payable external {}\r\n\r\n    modifier notOwner() {\r\n        require (msg.sender != host, \"As the host, you can't do this!\");\r\n        _;\r\n    }\r\n\r\n    modifier onlyOwner() {\r\n        require(msg.sender == host, \"You don't have the right to do this!\");\r\n        _;\r\n    }\r\n\r\n    modifier rankCheck(string memory rank) {\r\n        require(bytes(rank).length > 0,\"Your rank is missing!\");\r\n        _;\r\n    }\r\n\r\n    // Set the state of registration to open if all the requirements are met\r\n    function launchRegistration() public onlyOwner {\r\n        require(currentStateRegistration == StateRegistration.NOT_STARTED);\r\n        require(nbSponsors > 2, \"At least 3 sponsors are needed to launch the registration phase for the tournament !\");\r\n        require(donationsSponsors > 5 ether, \"The funds are not enough to launch a tournament!\");\r\n        currentStateRegistration = StateRegistration.OPENED;\r\n        emit RegistrationUpdated(currentStateRegistration);\r\n    }\r\n\r\n    // Set the state of registration to close if there is at least 8 players\r\n    function closeRegistration() public onlyOwner {\r\n        require(nbPlayers >= 4, \"At least 8 players are needed for this tournament!\");\r\n        currentStateRegistration = StateRegistration.CLOSED;\r\n        emit RegistrationUpdated(currentStateRegistration);\r\n    }\r\n\r\n    // Method to add a new player into the tournament\r\n    function addPlayer(string memory rank) public payable rankCheck(rank) notOwner {\r\n        require(currentStateRegistration != StateRegistration.CLOSED, \"Registration are closed!\");\r\n        require(currentStateRegistration == StateRegistration.OPENED, \"Registration are not opened yet\");\r\n        require(!players[msg.sender].isRegistered, \"You are already registered for this tournament !\");\r\n        require(sponsors[msg.sender] == 0, \"A sponsor can not be a player\");\r\n        require(msg.value == PRICE_REGISTRATION_PLAYER, \"Tournament price is 0.2 ether\"); \r\n\r\n        players[msg.sender] = Player(msg.sender, rank, true);\r\n        nbPlayers++;\r\n        paymentsPlayers += msg.value;\r\n\r\n        emit PlayerRegistered(msg.sender, rank);\r\n    }\r\n\r\n    // Method to add a new sponsor for the tournament\r\n    function addSponsor() public payable notOwner {\r\n        require(currentStateTournament == StateTournament.NOT_STARTED);\r\n        require(sponsors[msg.sender] == 0, \"You are already a sponsor for this tournament!\");\r\n        require(msg.value > 0, \"A donation must be higher than 0\");\r\n\r\n        sponsors[msg.sender] = msg.value;\r\n        donationsSponsors += msg.value;\r\n        nbSponsors++;\r\n\r\n        emit SponsorshipAdded(msg.sender, msg.value, nbSponsors, donationsSponsors);\r\n    }\r\n\r\n    // Method sending as reward, all the participations of the sponsors to the winner\r\n    function rewardWinner(address payable addressWinner) public payable onlyOwner {\r\n        require(currentStateTournament == StateTournament.FINISHED, \"The tournament is not yet finished!\");\r\n        winner = addressWinner;\r\n        uint amount = donationsSponsors;\r\n        addressWinner.transfer(amount);\r\n        emit WinnerRewarded(winner, amount);\r\n        donationsSponsors = 0;\r\n    }\r\n\r\n    // At the end of the tournament, the organizer get back in their tresory the participations of the participants\r\n    function updateTresoryTournament() public payable onlyOwner {\r\n        require(currentStateTournament == StateTournament.FINISHED, \"Tresory can not be updated right now!\");\r\n        uint amount = paymentsPlayers;\r\n        host.transfer(amount);\r\n        emit RefundTresory(host, amount);\r\n        paymentsPlayers = 0;\r\n    }\r\n\r\n    // Method to start the tournament if the registration phase is closed\r\n    function startTournament() public onlyOwner {\r\n        require(currentStateRegistration == StateRegistration.CLOSED, \"Registration must be closed before starting the tournament!\");\r\n        currentStateTournament = StateTournament.ONGOING;\r\n        emit TournamentStateUpdated(currentStateTournament);\r\n    }\r\n\r\n    // Method to end the tournament\r\n    function endTournament() public onlyOwner {\r\n        require(currentStateTournament == StateTournament.ONGOING);\r\n        currentStateTournament = StateTournament.FINISHED;\r\n        emit TournamentStateUpdated(currentStateTournament);\r\n    }\r\n\r\n    // Method to display the balance of the tournament\r\n    function getBalance() public view returns (uint) {\r\n       return address(this).balance;\r\n    }\r\n\r\n}",
  "sourcePath": "C:\\Users\\jessi\\Developpement\\solidity\\tennis_tournament\\contracts\\Tournament.sol",
  "compiler": {
    "name": "solc",
    "version": "0.8.15+commit.e14f2714.Emscripten.clang"
  },
  "schemaVersion": "3.4.8",
  "updatedAt": "2022-08-05T16:38:43.628Z",
  "networkType": "ethereum",
  "devdoc": {
    "kind": "dev",
    "methods": {},
    "version": 1
  },
  "userdoc": {
    "kind": "user",
    "methods": {},
    "version": 1
  }
}