{
  "contractName": "Tournament",
  "abi": [
    {
      "inputs": [],
      "stateMutability": "nonpayable",
      "type": "constructor"
    },
    {
      "anonymous": false,
      "inputs": [
        {
          "indexed": false,
          "internalType": "address",
          "name": "player",
          "type": "address"
        },
        {
          "indexed": false,
          "internalType": "string",
          "name": "rank",
          "type": "string"
        }
      ],
      "name": "PlayerRegistered",
      "type": "event"
    },
    {
      "anonymous": false,
      "inputs": [
        {
          "indexed": false,
          "internalType": "address",
          "name": "host",
          "type": "address"
        },
        {
          "indexed": false,
          "internalType": "uint256",
          "name": "refund",
          "type": "uint256"
        }
      ],
      "name": "RefundTresory",
      "type": "event"
    },
    {
      "anonymous": false,
      "inputs": [
        {
          "indexed": false,
          "internalType": "enum Tournament.StateRegistration",
          "name": "state",
          "type": "uint8"
        }
      ],
      "name": "RegistrationUpdated",
      "type": "event"
    },
    {
      "anonymous": false,
      "inputs": [
        {
          "indexed": false,
          "internalType": "address",
          "name": "sponsor",
          "type": "address"
        },
        {
          "indexed": false,
          "internalType": "uint256",
          "name": "donation",
          "type": "uint256"
        },
        {
          "indexed": false,
          "internalType": "uint256",
          "name": "nbSponsors",
          "type": "uint256"
        },
        {
          "indexed": false,
          "internalType": "uint256",
          "name": "totalDonation",
          "type": "uint256"
        }
      ],
      "name": "SponsorshipAdded",
      "type": "event"
    },
    {
      "anonymous": false,
      "inputs": [
        {
          "indexed": false,
          "internalType": "enum Tournament.StateTournament",
          "name": "state",
          "type": "uint8"
        }
      ],
      "name": "TournamentStateUpdated",
      "type": "event"
    },
    {
      "anonymous": false,
      "inputs": [
        {
          "indexed": false,
          "internalType": "address",
          "name": "winner",
          "type": "address"
        },
        {
          "indexed": false,
          "internalType": "uint256",
          "name": "reward",
          "type": "uint256"
        }
      ],
      "name": "WinnerRewarded",
      "type": "event"
    },
    {
      "inputs": [],
      "name": "PRICE_REGISTRATION_PLAYER",
      "outputs": [
        {
          "internalType": "uint256",
          "name": "",
          "type": "uint256"
        }
      ],
      "stateMutability": "view",
      "type": "function",
      "constant": true
    },
    {
      "inputs": [],
      "name": "currentStateRegistration",
      "outputs": [
        {
          "internalType": "enum Tournament.StateRegistration",
          "name": "",
          "type": "uint8"
        }
      ],
      "stateMutability": "view",
      "type": "function",
      "constant": true
    },
    {
      "inputs": [],
      "name": "currentStateTournament",
      "outputs": [
        {
          "internalType": "enum Tournament.StateTournament",
          "name": "",
          "type": "uint8"
        }
      ],
      "stateMutability": "view",
      "type": "function",
      "constant": true
    },
    {
      "inputs": [],
      "name": "donationsSponsors",
      "outputs": [
        {
          "internalType": "uint256",
          "name": "",
          "type": "uint256"
        }
      ],
      "stateMutability": "view",
      "type": "function",
      "constant": true
    },
    {
      "inputs": [],
      "name": "host",
      "outputs": [
        {
          "internalType": "address payable",
          "name": "",
          "type": "address"
        }
      ],
      "stateMutability": "view",
      "type": "function",
      "constant": true
    },
    {
      "inputs": [],
      "name": "nbPlayers",
      "outputs": [
        {
          "internalType": "uint256",
          "name": "",
          "type": "uint256"
        }
      ],
      "stateMutability": "view",
      "type": "function",
      "constant": true
    },
    {
      "inputs": [],
      "name": "nbSponsors",
      "outputs": [
        {
          "internalType": "uint256",
          "name": "",
          "type": "uint256"
        }
      ],
      "stateMutability": "view",
      "type": "function",
      "constant": true
    },
    {
      "inputs": [],
      "name": "paymentsPlayers",
      "outputs": [
        {
          "internalType": "uint256",
          "name": "",
          "type": "uint256"
        }
      ],
      "stateMutability": "view",
      "type": "function",
      "constant": true
    },
    {
      "inputs": [
        {
          "internalType": "address",
          "name": "",
          "type": "address"
        }
      ],
      "name": "players",
      "outputs": [
        {
          "internalType": "address",
          "name": "player",
          "type": "address"
        },
        {
          "internalType": "string",
          "name": "rank",
          "type": "string"
        },
        {
          "internalType": "bool",
          "name": "isRegistered",
          "type": "bool"
        }
      ],
      "stateMutability": "view",
      "type": "function",
      "constant": true
    },
    {
      "inputs": [
        {
          "internalType": "address",
          "name": "",
          "type": "address"
        }
      ],
      "name": "sponsors",
      "outputs": [
        {
          "internalType": "uint256",
          "name": "",
          "type": "uint256"
        }
      ],
      "stateMutability": "view",
      "type": "function",
      "constant": true
    },
    {
      "inputs": [],
      "name": "winner",
      "outputs": [
        {
          "internalType": "address payable",
          "name": "",
          "type": "address"
        }
      ],
      "stateMutability": "view",
      "type": "function",
      "constant": true
    },
    {
      "stateMutability": "payable",
      "type": "receive",
      "payable": true
    },
    {
      "inputs": [],
      "name": "launchRegistration",
      "outputs": [],
      "stateMutability": "nonpayable",
      "type": "function"
    },
    {
      "inputs": [],
      "name": "closeRegistration",
      "outputs": [],
      "stateMutability": "nonpayable",
      "type": "function"
    },
    {
      "inputs": [
        {
          "internalType": "string",
          "name": "rank",
          "type": "string"
        }
      ],
      "name": "addPlayer",
      "outputs": [],
      "stateMutability": "payable",
      "type": "function",
      "payable": true
    },
    {
      "inputs": [],
      "name": "addSponsor",
      "outputs": [],
      "stateMutability": "payable",
      "type": "function",
      "payable": true
    },
    {
      "inputs": [
        {
          "internalType": "address payable",
          "name": "addressWinner",
          "type": "address"
        }
      ],
      "name": "rewardWinner",
      "outputs": [],
      "stateMutability": "payable",
      "type": "function",
      "payable": true
    },
    {
      "inputs": [],
      "name": "updateTresoryTournament",
      "outputs": [],
      "stateMutability": "payable",
      "type": "function",
      "payable": true
    },
    {
      "inputs": [],
      "name": "startTournament",
      "outputs": [],
      "stateMutability": "nonpayable",
      "type": "function"
    },
    {
      "inputs": [],
      "name": "endTournament",
      "outputs": [],
      "stateMutability": "nonpayable",
      "type": "function"
    },
    {
      "inputs": [],
      "name": "getBalance",
      "outputs": [
        {
          "internalType": "uint256",
          "name": "",
          "type": "uint256"
        }
      ],
      "stateMutability": "view",
      "type": "function",
      "constant": true
    }
  ],
  "bytecode": "0x608060405234801561001057600080fd5b5033600660006101000a81548173ffffffffffffffffffffffffffffffffffffffff021916908373ffffffffffffffffffffffffffffffffffffffff1602179055506000600760146101000a81548160ff0219169083600281111561007857610077610082565b5b02179055506100b1565b7f4e487b7100000000000000000000000000000000000000000000000000000000600052602160045260246000fd5b6124af80620000c16000396000f3fe6080604052600436106101235760003560e01c806395e9209b116100a0578063dfbf53ae11610064578063dfbf53ae14610325578063e2eb41ff14610350578063e2fa09371461038f578063f437bc59146103ba578063f77e8b83146103e55761012a565b806395e9209b146102715780639e70efb91461027b578063bf559d11146102a6578063c6825365146102bd578063d35590c2146102e85761012a565b80634d633a8f116100e75780634d633a8f146101c25780635184f806146101d95780637dc673bc146102045780637e01d3f41461021b57806394ed4bf8146102465761012a565b806311ceb05a1461012f57806312065fe01461015a578063373c7143146101855780633bb2d914146101a15780634c804068146101ab5761012a565b3661012a57005b600080fd5b34801561013b57600080fd5b50610144610401565b604051610151919061148c565b60405180910390f35b34801561016657600080fd5b5061016f610407565b60405161017c919061148c565b60405180910390f35b61019f600480360381019061019a9190611519565b61040f565b005b6101a96105fe565b005b3480156101b757600080fd5b506101c06107cd565b005b3480156101ce57600080fd5b506101d76109a1565b005b3480156101e557600080fd5b506101ee610ae4565b6040516101fb919061148c565b60405180910390f35b34801561021057600080fd5b50610219610aea565b005b34801561022757600080fd5b50610230610c32565b60405161023d91906115bd565b60405180910390f35b34801561025257600080fd5b5061025b610c45565b604051610268919061148c565b60405180910390f35b610279610c51565b005b34801561028757600080fd5b50610290610e5b565b60405161029d9190611620565b60405180910390f35b3480156102b257600080fd5b506102bb610e6e565b005b3480156102c957600080fd5b506102d2610fe6565b6040516102df919061148c565b60405180910390f35b3480156102f457600080fd5b5061030f600480360381019061030a9190611679565b610fec565b60405161031c919061148c565b60405180910390f35b34801561033157600080fd5b5061033a611004565b60405161034791906116b5565b60405180910390f35b34801561035c57600080fd5b5061037760048036038101906103729190611679565b61102a565b60405161038693929190611793565b60405180910390f35b34801561039b57600080fd5b506103a4611109565b6040516103b1919061148c565b60405180910390f35b3480156103c657600080fd5b506103cf61110f565b6040516103dc91906116b5565b60405180910390f35b6103ff60048036038101906103fa9190611906565b611135565b005b60045481565b600047905090565b600660009054906101000a900473ffffffffffffffffffffffffffffffffffffffff1673ffffffffffffffffffffffffffffffffffffffff163373ffffffffffffffffffffffffffffffffffffffff161461049f576040517f08c379a0000000000000000000000000000000000000000000000000000000008152600401610496906119c1565b60405180910390fd5b6002808111156104b2576104b1611546565b5b600760159054906101000a900460ff1660028111156104d4576104d3611546565b5b14610514576040517f08c379a000000000000000000000000000000000000000000000000000000000815260040161050b90611a53565b60405180910390fd5b80600760006101000a81548173ffffffffffffffffffffffffffffffffffffffff021916908373ffffffffffffffffffffffffffffffffffffffff1602179055508073ffffffffffffffffffffffffffffffffffffffff166108fc6002549081150290604051600060405180830381858888f1935050505015801561059d573d6000803e3d6000fd5b507f0a3204bc33a281ed667abad174342fa0c82ae0b9fdad5b5f14319335acda3e6e600760009054906101000a900473ffffffffffffffffffffffffffffffffffffffff166002546040516105f3929190611ad2565b60405180910390a150565b600660009054906101000a900473ffffffffffffffffffffffffffffffffffffffff1673ffffffffffffffffffffffffffffffffffffffff163373ffffffffffffffffffffffffffffffffffffffff161461068e576040517f08c379a0000000000000000000000000000000000000000000000000000000008152600401610685906119c1565b60405180910390fd5b6002808111156106a1576106a0611546565b5b600760159054906101000a900460ff1660028111156106c3576106c2611546565b5b14610703576040517f08c379a00000000000000000000000000000000000000000000000000000000081526004016106fa90611b6d565b60405180910390fd5b600660009054906101000a900473ffffffffffffffffffffffffffffffffffffffff1673ffffffffffffffffffffffffffffffffffffffff166108fc6003549081150290604051600060405180830381858888f1935050505015801561076d573d6000803e3d6000fd5b507f40ec121c661117d4bbaf68dd6900b6c9b152410c7d77cea6ae10c1a0adae895a600660009054906101000a900473ffffffffffffffffffffffffffffffffffffffff166003546040516107c3929190611ad2565b60405180910390a1565b600660009054906101000a900473ffffffffffffffffffffffffffffffffffffffff1673ffffffffffffffffffffffffffffffffffffffff163373ffffffffffffffffffffffffffffffffffffffff161461085d576040517f08c379a0000000000000000000000000000000000000000000000000000000008152600401610854906119c1565b60405180910390fd5b6000600281111561087157610870611546565b5b600760149054906101000a900460ff16600281111561089357610892611546565b5b1461089d57600080fd5b6002600554116108e2576040517f08c379a00000000000000000000000000000000000000000000000000000000081526004016108d990611c25565b60405180910390fd5b674563918244f400006002541161092e576040517f08c379a000000000000000000000000000000000000000000000000000000000815260040161092590611cb7565b60405180910390fd5b6001600760146101000a81548160ff0219169083600281111561095457610953611546565b5b02179055507f2e819367fd0dc46fa4bdb5d3ac439a187464508ae295d58fce3d91deb7170f10600760149054906101000a900460ff1660405161099791906115bd565b60405180910390a1565b600660009054906101000a900473ffffffffffffffffffffffffffffffffffffffff1673ffffffffffffffffffffffffffffffffffffffff163373ffffffffffffffffffffffffffffffffffffffff1614610a31576040517f08c379a0000000000000000000000000000000000000000000000000000000008152600401610a28906119c1565b60405180910390fd5b60016002811115610a4557610a44611546565b5b600760159054906101000a900460ff166002811115610a6757610a66611546565b5b14610a7157600080fd5b6002600760156101000a81548160ff02191690836002811115610a9757610a96611546565b5b02179055507f6989ed15e0e83dde66fba80d57007bafea0614c08b459195887295a6973c2414600760159054906101000a900460ff16604051610ada9190611620565b60405180910390a1565b60025481565b600660009054906101000a900473ffffffffffffffffffffffffffffffffffffffff1673ffffffffffffffffffffffffffffffffffffffff163373ffffffffffffffffffffffffffffffffffffffff1614610b7a576040517f08c379a0000000000000000000000000000000000000000000000000000000008152600401610b71906119c1565b60405180910390fd5b600480541015610bbf576040517f08c379a0000000000000000000000000000000000000000000000000000000008152600401610bb690611d49565b60405180910390fd5b6002600760146101000a81548160ff02191690836002811115610be557610be4611546565b5b02179055507f2e819367fd0dc46fa4bdb5d3ac439a187464508ae295d58fce3d91deb7170f10600760149054906101000a900460ff16604051610c2891906115bd565b60405180910390a1565b600760149054906101000a900460ff1681565b671bc16d674ec8000081565b600660009054906101000a900473ffffffffffffffffffffffffffffffffffffffff1673ffffffffffffffffffffffffffffffffffffffff163373ffffffffffffffffffffffffffffffffffffffff1603610ce1576040517f08c379a0000000000000000000000000000000000000000000000000000000008152600401610cd890611db5565b60405180910390fd5b60006002811115610cf557610cf4611546565b5b600760159054906101000a900460ff166002811115610d1757610d16611546565b5b14610d2157600080fd5b6000600160003373ffffffffffffffffffffffffffffffffffffffff1673ffffffffffffffffffffffffffffffffffffffff1681526020019081526020016000205414610da3576040517f08c379a0000000000000000000000000000000000000000000000000000000008152600401610d9a90611e47565b60405180910390fd5b34600160003373ffffffffffffffffffffffffffffffffffffffff1673ffffffffffffffffffffffffffffffffffffffff168152602001908152602001600020819055503460026000828254610df99190611e96565b9250508190555060056000815480929190610e1390611eec565b91905055507fedf28e5db15c5dfe1d15087d61a05b701b067ee2fe79e1e3b4e49e25698c88273334600554600254604051610e519493929190611f34565b60405180910390a1565b600760159054906101000a900460ff1681565b600660009054906101000a900473ffffffffffffffffffffffffffffffffffffffff1673ffffffffffffffffffffffffffffffffffffffff163373ffffffffffffffffffffffffffffffffffffffff1614610efe576040517f08c379a0000000000000000000000000000000000000000000000000000000008152600401610ef5906119c1565b60405180910390fd5b600280811115610f1157610f10611546565b5b600760149054906101000a900460ff166002811115610f3357610f32611546565b5b14610f73576040517f08c379a0000000000000000000000000000000000000000000000000000000008152600401610f6a90611feb565b60405180910390fd5b6001600760156101000a81548160ff02191690836002811115610f9957610f98611546565b5b02179055507f6989ed15e0e83dde66fba80d57007bafea0614c08b459195887295a6973c2414600760159054906101000a900460ff16604051610fdc9190611620565b60405180910390a1565b60035481565b60016020528060005260406000206000915090505481565b600760009054906101000a900473ffffffffffffffffffffffffffffffffffffffff1681565b60006020528060005260406000206000915090508060000160009054906101000a900473ffffffffffffffffffffffffffffffffffffffff16908060010180546110739061203a565b80601f016020809104026020016040519081016040528092919081815260200182805461109f9061203a565b80156110ec5780601f106110c1576101008083540402835291602001916110ec565b820191906000526020600020905b8154815290600101906020018083116110cf57829003601f168201915b5050505050908060020160009054906101000a900460ff16905083565b60055481565b600660009054906101000a900473ffffffffffffffffffffffffffffffffffffffff1681565b600660009054906101000a900473ffffffffffffffffffffffffffffffffffffffff1673ffffffffffffffffffffffffffffffffffffffff163373ffffffffffffffffffffffffffffffffffffffff16036111c5576040517f08c379a00000000000000000000000000000000000000000000000000000000081526004016111bc90611db5565b60405180910390fd5b600160028111156111d9576111d8611546565b5b600760149054906101000a900460ff1660028111156111fb576111fa611546565b5b1461123b576040517f08c379a0000000000000000000000000000000000000000000000000000000008152600401611232906120b7565b60405180910390fd5b6000803373ffffffffffffffffffffffffffffffffffffffff1673ffffffffffffffffffffffffffffffffffffffff16815260200190815260200160002060020160009054906101000a900460ff16156112ca576040517f08c379a00000000000000000000000000000000000000000000000000000000081526004016112c190612149565b60405180910390fd5b671bc16d674ec800003414611314576040517f08c379a000000000000000000000000000000000000000000000000000000000815260040161130b906121b5565b60405180910390fd5b60405180606001604052803373ffffffffffffffffffffffffffffffffffffffff168152602001828152602001600115158152506000803373ffffffffffffffffffffffffffffffffffffffff1673ffffffffffffffffffffffffffffffffffffffff16815260200190815260200160002060008201518160000160006101000a81548173ffffffffffffffffffffffffffffffffffffffff021916908373ffffffffffffffffffffffffffffffffffffffff16021790555060208201518160010190816113e29190612377565b5060408201518160020160006101000a81548160ff0219169083151502179055509050506004600081548092919061141990611eec565b919050555034600360008282546114309190611e96565b925050819055507fe04d23b73ae3d3b27074da9719b5a4cd521395aaf86bfe7e374933ecb567731a3382604051611468929190612449565b60405180910390a150565b6000819050919050565b61148681611473565b82525050565b60006020820190506114a1600083018461147d565b92915050565b6000604051905090565b600080fd5b600080fd5b600073ffffffffffffffffffffffffffffffffffffffff82169050919050565b60006114e6826114bb565b9050919050565b6114f6816114db565b811461150157600080fd5b50565b600081359050611513816114ed565b92915050565b60006020828403121561152f5761152e6114b1565b5b600061153d84828501611504565b91505092915050565b7f4e487b7100000000000000000000000000000000000000000000000000000000600052602160045260246000fd5b6003811061158657611585611546565b5b50565b600081905061159782611575565b919050565b60006115a782611589565b9050919050565b6115b78161159c565b82525050565b60006020820190506115d260008301846115ae565b92915050565b600381106115e9576115e8611546565b5b50565b60008190506115fa826115d8565b919050565b600061160a826115ec565b9050919050565b61161a816115ff565b82525050565b60006020820190506116356000830184611611565b92915050565b6000611646826114bb565b9050919050565b6116568161163b565b811461166157600080fd5b50565b6000813590506116738161164d565b92915050565b60006020828403121561168f5761168e6114b1565b5b600061169d84828501611664565b91505092915050565b6116af816114db565b82525050565b60006020820190506116ca60008301846116a6565b92915050565b6116d98161163b565b82525050565b600081519050919050565b600082825260208201905092915050565b60005b838110156117195780820151818401526020810190506116fe565b83811115611728576000848401525b50505050565b6000601f19601f8301169050919050565b600061174a826116df565b61175481856116ea565b93506117648185602086016116fb565b61176d8161172e565b840191505092915050565b60008115159050919050565b61178d81611778565b82525050565b60006060820190506117a860008301866116d0565b81810360208301526117ba818561173f565b90506117c96040830184611784565b949350505050565b600080fd5b600080fd5b7f4e487b7100000000000000000000000000000000000000000000000000000000600052604160045260246000fd5b6118138261172e565b810181811067ffffffffffffffff82111715611832576118316117db565b5b80604052505050565b60006118456114a7565b9050611851828261180a565b919050565b600067ffffffffffffffff821115611871576118706117db565b5b61187a8261172e565b9050602081019050919050565b82818337600083830152505050565b60006118a96118a484611856565b61183b565b9050828152602081018484840111156118c5576118c46117d6565b5b6118d0848285611887565b509392505050565b600082601f8301126118ed576118ec6117d1565b5b81356118fd848260208601611896565b91505092915050565b60006020828403121561191c5761191b6114b1565b5b600082013567ffffffffffffffff81111561193a576119396114b6565b5b611946848285016118d8565b91505092915050565b7f596f7520646f6e277420686176652074686520726967687420746f20646f207460008201527f6869732100000000000000000000000000000000000000000000000000000000602082015250565b60006119ab6024836116ea565b91506119b68261194f565b604082019050919050565b600060208201905081810360008301526119da8161199e565b9050919050565b7f54686520746f75726e616d656e74206973206e6f74207965742066696e69736860008201527f6564210000000000000000000000000000000000000000000000000000000000602082015250565b6000611a3d6023836116ea565b9150611a48826119e1565b604082019050919050565b60006020820190508181036000830152611a6c81611a30565b9050919050565b6000819050919050565b6000611a98611a93611a8e846114bb565b611a73565b6114bb565b9050919050565b6000611aaa82611a7d565b9050919050565b6000611abc82611a9f565b9050919050565b611acc81611ab1565b82525050565b6000604082019050611ae76000830185611ac3565b611af4602083018461147d565b9392505050565b7f547265736f72792063616e206e6f74206265207570646174656420726967687460008201527f206e6f7721000000000000000000000000000000000000000000000000000000602082015250565b6000611b576025836116ea565b9150611b6282611afb565b604082019050919050565b60006020820190508181036000830152611b8681611b4a565b9050919050565b7f4174206c6561737420332073706f6e736f727320617265206e6565646564207460008201527f6f206c61756e63682074686520726567697374726174696f6e2070686173652060208201527f666f722074686520746f75726e616d656e742021000000000000000000000000604082015250565b6000611c0f6054836116ea565b9150611c1a82611b8d565b606082019050919050565b60006020820190508181036000830152611c3e81611c02565b9050919050565b7f5468652066756e647320617265206e6f7420656e6f75676820746f206c61756e60008201527f6368206120746f75726e616d656e742100000000000000000000000000000000602082015250565b6000611ca16030836116ea565b9150611cac82611c45565b604082019050919050565b60006020820190508181036000830152611cd081611c94565b9050919050565b7f4174206c65617374203820706c617965727320617265206e656564656420666f60008201527f72207468697320746f75726e616d656e74210000000000000000000000000000602082015250565b6000611d336032836116ea565b9150611d3e82611cd7565b604082019050919050565b60006020820190508181036000830152611d6281611d26565b9050919050565b7f41732074686520686f73742c20796f752063616e277420646f20746869732100600082015250565b6000611d9f601f836116ea565b9150611daa82611d69565b602082019050919050565b60006020820190508181036000830152611dce81611d92565b9050919050565b7f596f752061726520616c726561647920612073706f6e736f7220666f7220746860008201527f697320746f75726e616d656e7421000000000000000000000000000000000000602082015250565b6000611e31602e836116ea565b9150611e3c82611dd5565b604082019050919050565b60006020820190508181036000830152611e6081611e24565b9050919050565b7f4e487b7100000000000000000000000000000000000000000000000000000000600052601160045260246000fd5b6000611ea182611473565b9150611eac83611473565b9250827fffffffffffffffffffffffffffffffffffffffffffffffffffffffffffffffff03821115611ee157611ee0611e67565b5b828201905092915050565b6000611ef782611473565b91507fffffffffffffffffffffffffffffffffffffffffffffffffffffffffffffffff8203611f2957611f28611e67565b5b600182019050919050565b6000608082019050611f4960008301876116d0565b611f56602083018661147d565b611f63604083018561147d565b611f70606083018461147d565b95945050505050565b7f526567697374726174696f6e206d75737420626520636c6f736564206265666f60008201527f7265207374617274696e672074686520746f75726e616d656e74210000000000602082015250565b6000611fd5603b836116ea565b9150611fe082611f79565b604082019050919050565b6000602082019050818103600083015261200481611fc8565b9050919050565b7f4e487b7100000000000000000000000000000000000000000000000000000000600052602260045260246000fd5b6000600282049050600182168061205257607f821691505b6020821081036120655761206461200b565b5b50919050565b7f526567697374726174696f6e2061726520636c6f736564000000000000000000600082015250565b60006120a16017836116ea565b91506120ac8261206b565b602082019050919050565b600060208201905081810360008301526120d081612094565b9050919050565b7f596f752061726520616c7265616479207265676973746572656420666f72207460008201527f68697320746f75726e616d656e74202100000000000000000000000000000000602082015250565b60006121336030836116ea565b915061213e826120d7565b604082019050919050565b6000602082019050818103600083015261216281612126565b9050919050565b7f546f75726e616d656e7420707269636520697320302e32206574686572000000600082015250565b600061219f601d836116ea565b91506121aa82612169565b602082019050919050565b600060208201905081810360008301526121ce81612192565b9050919050565b60008190508160005260206000209050919050565b60006020601f8301049050919050565b600082821b905092915050565b6000600883026122377fffffffffffffffffffffffffffffffffffffffffffffffffffffffffffffffff826121fa565b61224186836121fa565b95508019841693508086168417925050509392505050565b600061227461226f61226a84611473565b611a73565b611473565b9050919050565b6000819050919050565b61228e83612259565b6122a261229a8261227b565b848454612207565b825550505050565b600090565b6122b76122aa565b6122c2818484612285565b505050565b5b818110156122e6576122db6000826122af565b6001810190506122c8565b5050565b601f82111561232b576122fc816121d5565b612305846121ea565b81016020851015612314578190505b612328612320856121ea565b8301826122c7565b50505b505050565b600082821c905092915050565b600061234e60001984600802612330565b1980831691505092915050565b6000612367838361233d565b9150826002028217905092915050565b612380826116df565b67ffffffffffffffff811115612399576123986117db565b5b6123a3825461203a565b6123ae8282856122ea565b600060209050601f8311600181146123e157600084156123cf578287015190505b6123d9858261235b565b865550612441565b601f1984166123ef866121d5565b60005b82811015612417578489015182556001820191506020850194506020810190506123f2565b868310156124345784890151612430601f89168261233d565b8355505b6001600288020188555050505b505050505050565b600060408201905061245e60008301856116d0565b8181036020830152612470818461173f565b9050939250505056fea26469706673582212204810bbcea0527cfb58644344a43b0fad9a5e248345183e9f3c0a84d6c7fff2a464736f6c634300080f0033",
  "immutableReferences": {},
  "source": "//SPDX-License-Identifier: GPL-3.0\r\n \r\npragma solidity ^0.8.13;\r\n\r\ncontract Tournament {\r\n    uint constant public PRICE_REGISTRATION_PLAYER = 2000000000000000000; // defined in wei => 0.2 ether\r\n\r\n    mapping (address => Player) public players;\r\n    mapping (address => uint) public sponsors;\r\n    uint public donationsSponsors;\r\n    uint public paymentsPlayers;\r\n    uint public nbPlayers;\r\n    uint public nbSponsors;\r\n    address payable public host;\r\n    address payable public winner;\r\n\r\n    enum StateRegistration {NOT_STARTED, OPENED, CLOSED}\r\n    enum StateTournament {NOT_STARTED, ONGOING, FINISHED}\r\n    \r\n    StateRegistration public currentStateRegistration;\r\n    StateTournament public currentStateTournament;\r\n\r\n    struct Player {\r\n        address player;\r\n        string rank;\r\n        bool isRegistered;\r\n    }\r\n\r\n    event PlayerRegistered (address player, string rank);\r\n    event SponsorshipAdded (address sponsor, uint donation, uint nbSponsors, uint totalDonation);\r\n    event RegistrationUpdated (StateRegistration state);\r\n    event TournamentStateUpdated (StateTournament state);\r\n    event WinnerRewarded (address winner, uint reward);\r\n    event RefundTresory (address host, uint refund);\r\n\r\n    constructor() {\r\n        host = payable(msg.sender);\r\n        currentStateRegistration = StateRegistration.NOT_STARTED;\r\n    }\r\n\r\n    receive() payable external {}\r\n\r\n    modifier notOwner() {\r\n        require (msg.sender != host, \"As the host, you can't do this!\");\r\n        _;\r\n    }\r\n\r\n    modifier onlyOwner() {\r\n        require(msg.sender == host, \"You don't have the right to do this!\");\r\n        _;\r\n    }\r\n\r\n    // Set the state of registration to open if all the requirements are met\r\n    function launchRegistration() public onlyOwner {\r\n        require(currentStateRegistration == StateRegistration.NOT_STARTED);\r\n        require(nbSponsors > 2, \"At least 3 sponsors are needed to launch the registration phase for the tournament !\");\r\n        require(donationsSponsors > 5 ether, \"The funds are not enough to launch a tournament!\");\r\n        currentStateRegistration = StateRegistration.OPENED;\r\n        emit RegistrationUpdated(currentStateRegistration);\r\n    }\r\n\r\n    // Set the state of registration to close if there is at least 8 players\r\n    function closeRegistration() public onlyOwner {\r\n        require(nbPlayers >= 4, \"At least 8 players are needed for this tournament!\");\r\n        currentStateRegistration = StateRegistration.CLOSED;\r\n        emit RegistrationUpdated(currentStateRegistration);\r\n    }\r\n\r\n    // Method to add a new player into the tournament\r\n    function addPlayer(string memory rank) public payable notOwner {\r\n        require(currentStateRegistration == StateRegistration.OPENED, \"Registration are closed\");\r\n        require(!players[msg.sender].isRegistered, \"You are already registered for this tournament !\");\r\n        require(msg.value == PRICE_REGISTRATION_PLAYER, \"Tournament price is 0.2 ether\"); // Let's see how we can force the price during the transaction TODO\r\n\r\n        players[msg.sender] = Player(msg.sender, rank, true);\r\n        nbPlayers++;\r\n        paymentsPlayers += msg.value;\r\n\r\n        emit PlayerRegistered(msg.sender, rank);\r\n    }\r\n\r\n    // Method to add a new sponsor for the tournament\r\n    function addSponsor() public payable notOwner {\r\n        require(currentStateTournament == StateTournament.NOT_STARTED);\r\n        require(sponsors[msg.sender] == 0, \"You are already a sponsor for this tournament!\");\r\n\r\n        sponsors[msg.sender] = msg.value;\r\n        donationsSponsors += msg.value;\r\n        nbSponsors++;\r\n\r\n        emit SponsorshipAdded(msg.sender, msg.value, nbSponsors, donationsSponsors);\r\n    }\r\n\r\n    // Method sending as reward, all the participations of the sponsors to the winner\r\n    function rewardWinner(address payable addressWinner) public payable onlyOwner {\r\n        require(currentStateTournament == StateTournament.FINISHED, \"The tournament is not yet finished!\");\r\n        winner = addressWinner;\r\n        addressWinner.transfer(donationsSponsors);\r\n        emit WinnerRewarded(winner, donationsSponsors);\r\n    }\r\n\r\n    // At the end of the tournament, the organizer get back in their tresory the participations of the participants\r\n    function updateTresoryTournament() public payable onlyOwner {\r\n        require(currentStateTournament == StateTournament.FINISHED, \"Tresory can not be updated right now!\");\r\n        host.transfer(paymentsPlayers);\r\n        emit RefundTresory(host, paymentsPlayers);\r\n    }\r\n\r\n    // Method to start the tournament if the registration phase is closed\r\n    function startTournament() public onlyOwner {\r\n        require(currentStateRegistration == StateRegistration.CLOSED, \"Registration must be closed before starting the tournament!\");\r\n        currentStateTournament = StateTournament.ONGOING;\r\n        emit TournamentStateUpdated(currentStateTournament);\r\n    }\r\n\r\n    // Method to end the tournament\r\n    function endTournament() public onlyOwner {\r\n        require(currentStateTournament == StateTournament.ONGOING);\r\n        currentStateTournament = StateTournament.FINISHED;\r\n        emit TournamentStateUpdated(currentStateTournament);\r\n    }\r\n\r\n    // Method to display the balance of the tournament\r\n    function getBalance() public view returns (uint) {\r\n       return address(this).balance;\r\n    }\r\n\r\n}",
  "sourcePath": "C:\\Users\\jessi\\Developpement\\solidity\\tennis_tournament\\contracts\\Tournament.sol",
  "compiler": {
    "name": "solc",
    "version": "0.8.15+commit.e14f2714.Emscripten.clang"
  },
  "schemaVersion": "3.4.8",
  "updatedAt": "2022-08-05T14:32:30.058Z",
  "networkType": "ethereum",
  "devdoc": {
    "kind": "dev",
    "methods": {},
    "version": 1
  },
  "userdoc": {
    "kind": "user",
    "methods": {},
    "version": 1
  }
}